{
  "contractName": "Splitter",
  "abi": [
    {
      "constant": true,
      "inputs": [
        {
          "name": "",
          "type": "address"
        }
      ],
      "name": "balances",
      "outputs": [
        {
          "name": "",
          "type": "uint256"
        }
      ],
      "payable": false,
      "stateMutability": "view",
      "type": "function"
    },
    {
      "constant": true,
      "inputs": [],
      "name": "secondCustomer",
      "outputs": [
        {
          "name": "",
          "type": "address"
        }
      ],
      "payable": false,
      "stateMutability": "view",
      "type": "function"
    },
    {
      "constant": false,
      "inputs": [],
      "name": "pauseContract",
      "outputs": [
        {
          "name": "success",
          "type": "bool"
        }
      ],
      "payable": false,
      "stateMutability": "nonpayable",
      "type": "function"
    },
    {
      "constant": true,
      "inputs": [],
      "name": "getOwner",
      "outputs": [
        {
          "name": "owner",
          "type": "address"
        }
      ],
      "payable": false,
      "stateMutability": "view",
      "type": "function"
    },
    {
      "constant": false,
      "inputs": [
        {
          "name": "newOwner",
          "type": "address"
        }
      ],
      "name": "changeOwner",
      "outputs": [
        {
          "name": "success",
          "type": "bool"
        }
      ],
      "payable": false,
      "stateMutability": "nonpayable",
      "type": "function"
    },
    {
      "constant": true,
      "inputs": [],
      "name": "firstCustomer",
      "outputs": [
        {
          "name": "",
          "type": "address"
        }
      ],
      "payable": false,
      "stateMutability": "view",
      "type": "function"
    },
    {
      "constant": false,
      "inputs": [],
      "name": "resumeContract",
      "outputs": [
        {
          "name": "success",
          "type": "bool"
        }
      ],
      "payable": false,
      "stateMutability": "nonpayable",
      "type": "function"
    },
    {
      "anonymous": false,
      "inputs": [
        {
          "indexed": true,
          "name": "_by",
          "type": "address"
        },
        {
          "indexed": true,
          "name": "_newCustomer",
          "type": "address"
        },
        {
          "indexed": false,
          "name": "_leftOrRight",
          "type": "string"
        }
      ],
      "name": "logCustomerSet",
      "type": "event"
    },
    {
      "anonymous": false,
      "inputs": [
        {
          "indexed": true,
          "name": "_by",
          "type": "address"
        },
        {
          "indexed": false,
          "name": "_valuePerCustomer",
          "type": "uint256"
        },
        {
          "indexed": true,
          "name": "_firstCustomer",
          "type": "address"
        },
        {
          "indexed": true,
          "name": "_secondCustomer",
          "type": "address"
        }
      ],
      "name": "logFundsSplit",
      "type": "event"
    },
    {
      "anonymous": false,
      "inputs": [
        {
          "indexed": true,
          "name": "_by",
          "type": "address"
        },
        {
          "indexed": false,
          "name": "_value",
          "type": "uint256"
        }
      ],
      "name": "logFundsWithdrawn",
      "type": "event"
    },
    {
      "anonymous": false,
      "inputs": [
        {
          "indexed": true,
          "name": "sender",
          "type": "address"
        }
      ],
      "name": "LogPausedcontract",
      "type": "event"
    },
    {
      "anonymous": false,
      "inputs": [
        {
          "indexed": true,
          "name": "sender",
          "type": "address"
        }
      ],
      "name": "LogResumedcontract",
      "type": "event"
    },
    {
      "anonymous": false,
      "inputs": [
        {
          "indexed": true,
          "name": "sender",
          "type": "address"
        },
        {
          "indexed": true,
          "name": "newOnwer",
          "type": "address"
        }
      ],
      "name": "LogChangeOwner",
      "type": "event"
    },
    {
      "constant": false,
      "inputs": [
        {
          "name": "_newCustomer",
          "type": "address"
        },
        {
          "name": "_which",
          "type": "bool"
        }
      ],
      "name": "setCustomer",
      "outputs": [
        {
          "name": "success",
          "type": "bool"
        }
      ],
      "payable": false,
      "stateMutability": "nonpayable",
      "type": "function"
    },
    {
      "constant": false,
      "inputs": [],
      "name": "split",
      "outputs": [
        {
          "name": "success",
          "type": "bool"
        }
      ],
      "payable": true,
      "stateMutability": "payable",
      "type": "function"
    },
    {
      "constant": false,
      "inputs": [],
      "name": "withdrawFunds",
      "outputs": [
        {
          "name": "success",
          "type": "bool"
        }
      ],
      "payable": false,
      "stateMutability": "nonpayable",
      "type": "function"
    }
  ],
  "bytecode": "0x60806040526001336000806101000a81548173ffffffffffffffffffffffffffffffffffffffff021916908373ffffffffffffffffffffffffffffffffffffffff16021790555080600060146101000a81548160ff02191690831515021790555050611542806100706000396000f3fe6080604052600436106100915760003560e01c8063a6f9dae111610059578063a6f9dae114610207578063ace86d9914610270578063aea57ac6146102c7578063c4bc5da51461033c578063f76541761461036b57610091565b806324600fc31461009657806327e235e3146100c557806330d4b0bc1461012a578063439766ce14610181578063893d20e8146101b0575b600080fd5b3480156100a257600080fd5b506100ab61038d565b604051808215151515815260200191505060405180910390f35b3480156100d157600080fd5b50610114600480360360208110156100e857600080fd5b81019080803573ffffffffffffffffffffffffffffffffffffffff169060200190929190505050610518565b6040518082815260200191505060405180910390f35b34801561013657600080fd5b5061013f610530565b604051808273ffffffffffffffffffffffffffffffffffffffff1673ffffffffffffffffffffffffffffffffffffffff16815260200191505060405180910390f35b34801561018d57600080fd5b50610196610556565b604051808215151515815260200191505060405180910390f35b3480156101bc57600080fd5b506101c561067a565b604051808273ffffffffffffffffffffffffffffffffffffffff1673ffffffffffffffffffffffffffffffffffffffff16815260200191505060405180910390f35b34801561021357600080fd5b506102566004803603602081101561022a57600080fd5b81019080803573ffffffffffffffffffffffffffffffffffffffff1690602001909291905050506106a3565b604051808215151515815260200191505060405180910390f35b34801561027c57600080fd5b50610285610890565b604051808273ffffffffffffffffffffffffffffffffffffffff1673ffffffffffffffffffffffffffffffffffffffff16815260200191505060405180910390f35b3480156102d357600080fd5b50610322600480360360408110156102ea57600080fd5b81019080803573ffffffffffffffffffffffffffffffffffffffff1690602001909291908035151590602001909291905050506108b6565b604051808215151515815260200191505060405180910390f35b34801561034857600080fd5b50610351610baf565b604051808215151515815260200191505060405180910390f35b610373610cd5565b604051808215151515815260200191505060405180910390f35b60008060149054906101000a900460ff166103a757600080fd5b600080600160003373ffffffffffffffffffffffffffffffffffffffff1673ffffffffffffffffffffffffffffffffffffffff16815260200190815260200160002054116103f457600080fd5b600160003373ffffffffffffffffffffffffffffffffffffffff1673ffffffffffffffffffffffffffffffffffffffff1681526020019081526020016000205490506000600160003373ffffffffffffffffffffffffffffffffffffffff1673ffffffffffffffffffffffffffffffffffffffff168152602001908152602001600020819055503373ffffffffffffffffffffffffffffffffffffffff166108fc829081150290604051600060405180830381858888f193505050501580156104c1573d6000803e3d6000fd5b503373ffffffffffffffffffffffffffffffffffffffff167f029c138635db735799ce30d3f93f0e188daf496d27b79f9bab8fe850a3ae797d826040518082815260200191505060405180910390a2600191505090565b60016020528060005260406000206000915090505481565b600360009054906101000a900473ffffffffffffffffffffffffffffffffffffffff1681565b60008060009054906101000a900473ffffffffffffffffffffffffffffffffffffffff1673ffffffffffffffffffffffffffffffffffffffff163373ffffffffffffffffffffffffffffffffffffffff16146105fd576040517f08c379a00000000000000000000000000000000000000000000000000000000081526004018080602001828103825260278152602001806114f06027913960400191505060405180910390fd5b600060149054906101000a900460ff1661061657600080fd5b60008060146101000a81548160ff0219169083151502179055503373ffffffffffffffffffffffffffffffffffffffff167fab1ce5620eaf07eb6b9fd8312f0f1f03c9b1e6beaf4cd36a28c261ecd950286e60405160405180910390a26001905090565b60008060009054906101000a900473ffffffffffffffffffffffffffffffffffffffff16905090565b60008060009054906101000a900473ffffffffffffffffffffffffffffffffffffffff1673ffffffffffffffffffffffffffffffffffffffff163373ffffffffffffffffffffffffffffffffffffffff161461074a576040517f08c379a00000000000000000000000000000000000000000000000000000000081526004018080602001828103825260278152602001806114f06027913960400191505060405180910390fd5b600073ffffffffffffffffffffffffffffffffffffffff168273ffffffffffffffffffffffffffffffffffffffff1614156107ed576040517f08c379a000000000000000000000000000000000000000000000000000000000815260040180806020018281038252601d8152602001807f496e76616c6964206164647265737320666f72206e6577204f6e77657200000081525060200191505060405180910390fd5b816000806101000a81548173ffffffffffffffffffffffffffffffffffffffff021916908373ffffffffffffffffffffffffffffffffffffffff1602179055508173ffffffffffffffffffffffffffffffffffffffff163373ffffffffffffffffffffffffffffffffffffffff167f96b36bedce75759b139551b10b3d2e1e863dbbfbdc30f9f9e374bb24431d5da260405160405180910390a360019050919050565b600260009054906101000a900473ffffffffffffffffffffffffffffffffffffffff1681565b60008060009054906101000a900473ffffffffffffffffffffffffffffffffffffffff1673ffffffffffffffffffffffffffffffffffffffff163373ffffffffffffffffffffffffffffffffffffffff161461095d576040517f08c379a00000000000000000000000000000000000000000000000000000000081526004018080602001828103825260278152602001806114f06027913960400191505060405180910390fd5b600073ffffffffffffffffffffffffffffffffffffffff168373ffffffffffffffffffffffffffffffffffffffff16141561099757600080fd5b600015158215151415610a9e5782600260006101000a81548173ffffffffffffffffffffffffffffffffffffffff021916908373ffffffffffffffffffffffffffffffffffffffff160217905550600260009054906101000a900473ffffffffffffffffffffffffffffffffffffffff1673ffffffffffffffffffffffffffffffffffffffff163373ffffffffffffffffffffffffffffffffffffffff167f8456618e40a4ff50db14e37aa88b2d3c29cacc034b2d2ce2ac0019663a87303460405180806020018281038252600e8152602001807f666972737420437573746f6d657200000000000000000000000000000000000081525060200191505060405180910390a35b600115158215151415610ba55782600360006101000a81548173ffffffffffffffffffffffffffffffffffffffff021916908373ffffffffffffffffffffffffffffffffffffffff160217905550600360009054906101000a900473ffffffffffffffffffffffffffffffffffffffff1673ffffffffffffffffffffffffffffffffffffffff163373ffffffffffffffffffffffffffffffffffffffff167f8456618e40a4ff50db14e37aa88b2d3c29cacc034b2d2ce2ac0019663a87303460405180806020018281038252600f8152602001807f7365636f6e6420437573746f6d6572000000000000000000000000000000000081525060200191505060405180910390a35b6001905092915050565b60008060009054906101000a900473ffffffffffffffffffffffffffffffffffffffff1673ffffffffffffffffffffffffffffffffffffffff163373ffffffffffffffffffffffffffffffffffffffff1614610c56576040517f08c379a00000000000000000000000000000000000000000000000000000000081526004018080602001828103825260278152602001806114f06027913960400191505060405180910390fd5b600060149054906101000a900460ff1615610c7057600080fd5b6001600060146101000a81548160ff0219169083151502179055503373ffffffffffffffffffffffffffffffffffffffff167f63eafc32e83056034d64eb224719b88c44acb7447f36d2d9adbdd3213a5ff0a660405160405180910390a26001905090565b60008060009054906101000a900473ffffffffffffffffffffffffffffffffffffffff1673ffffffffffffffffffffffffffffffffffffffff163373ffffffffffffffffffffffffffffffffffffffff1614610d7c576040517f08c379a00000000000000000000000000000000000000000000000000000000081526004018080602001828103825260278152602001806114f06027913960400191505060405180910390fd5b600060149054906101000a900460ff16610d9557600080fd5b600034905060008073ffffffffffffffffffffffffffffffffffffffff16600260009054906101000a900473ffffffffffffffffffffffffffffffffffffffff1673ffffffffffffffffffffffffffffffffffffffff1614158015610e495750600073ffffffffffffffffffffffffffffffffffffffff16600360009054906101000a900473ffffffffffffffffffffffffffffffffffffffff1673ffffffffffffffffffffffffffffffffffffffff1614155b610ebb576040517f08c379a000000000000000000000000000000000000000000000000000000000815260040180806020018281038252601e8152602001807f426f746820637573746f6d657273206861766520746f206265207365742e000081525060200191505060405180910390fd5b6001610ed160028461124c90919063ffffffff16565b1415610f45576040517f08c379a00000000000000000000000000000000000000000000000000000000081526004018080602001828103825260178152602001807f416d6d6f756e74206e6f742073706c69747461626c652e00000000000000000081525060200191505060405180910390fd5b610f5960028361129690919063ffffffff16565b905060008111610fd1576040517f08c379a00000000000000000000000000000000000000000000000000000000081526004018080602001828103825260198152602001807f4c6f63616c2062616c616e636520697320746f6f206c6f772e0000000000000081525060200191505060405180910390fd5b6110458160016000600260009054906101000a900473ffffffffffffffffffffffffffffffffffffffff1673ffffffffffffffffffffffffffffffffffffffff1673ffffffffffffffffffffffffffffffffffffffff168152602001908152602001600020546112e090919063ffffffff16565b60016000600260009054906101000a900473ffffffffffffffffffffffffffffffffffffffff1673ffffffffffffffffffffffffffffffffffffffff1673ffffffffffffffffffffffffffffffffffffffff1681526020019081526020016000208190555061111e8160016000600360009054906101000a900473ffffffffffffffffffffffffffffffffffffffff1673ffffffffffffffffffffffffffffffffffffffff1673ffffffffffffffffffffffffffffffffffffffff168152602001908152602001600020546112e090919063ffffffff16565b60016000600360009054906101000a900473ffffffffffffffffffffffffffffffffffffffff1673ffffffffffffffffffffffffffffffffffffffff1673ffffffffffffffffffffffffffffffffffffffff16815260200190815260200160002081905550600360009054906101000a900473ffffffffffffffffffffffffffffffffffffffff1673ffffffffffffffffffffffffffffffffffffffff16600260009054906101000a900473ffffffffffffffffffffffffffffffffffffffff1673ffffffffffffffffffffffffffffffffffffffff163373ffffffffffffffffffffffffffffffffffffffff167f8f073d95128edaa3c97278f7f04ff0789daf2e7068d67bdc3576dab57dd59b35846040518082815260200191505060405180910390a460019250505090565b600061128e83836040518060400160405280601881526020017f536166654d6174683a206d6f64756c6f206279207a65726f0000000000000000815250611368565b905092915050565b60006112d883836040518060400160405280601a81526020017f536166654d6174683a206469766973696f6e206279207a65726f000000000000815250611429565b905092915050565b60008082840190508381101561135e576040517f08c379a000000000000000000000000000000000000000000000000000000000815260040180806020018281038252601b8152602001807f536166654d6174683a206164646974696f6e206f766572666c6f77000000000081525060200191505060405180910390fd5b8091505092915050565b6000808314158290611415576040517f08c379a00000000000000000000000000000000000000000000000000000000081526004018080602001828103825283818151815260200191508051906020019080838360005b838110156113da5780820151818401526020810190506113bf565b50505050905090810190601f1680156114075780820380516001836020036101000a031916815260200191505b509250505060405180910390fd5b5082848161141f57fe5b0690509392505050565b600080831182906114d5576040517f08c379a00000000000000000000000000000000000000000000000000000000081526004018080602001828103825283818151815260200191508051906020019080838360005b8381101561149a57808201518184015260208101905061147f565b50505050905090810190601f1680156114c75780820380516001836020036101000a031916815260200191505b509250505060405180910390fd5b5060008385816114e157fe5b04905080915050939250505056fe596f7520617265206e6f7420746865206f776e6572206f66207468697320636f6e74726163742ea165627a7a7230582023ea089f653e945db5640eed220f09934e9b19806138111cc4546ff82a26426f0029",
  "source": " pragma solidity 0.5.8;\r\n\r\n import './SafeMath.sol';\r\n\r\n import './Stoppable.sol';\r\n\r\n\r\n\r\n \r\n /**\r\n  * @title Splitting of Alice' ethereum for the Blockstars course. \r\n  */\r\n contract Splitter is Stoppable(true) {\r\n     using SafeMath for uint;\r\n     \r\n     event logCustomerSet(address indexed _by, address indexed _newCustomer, string _leftOrRight);\r\n     event logFundsSplit(address indexed _by, uint _valuePerCustomer, address indexed _firstCustomer, address indexed _secondCustomer);\r\n     event logFundsWithdrawn(address indexed _by, uint _value);\r\n         \r\n     \r\n     mapping (address => uint256) public balances;\r\n     \r\n     address public firstCustomer;\r\n     address public secondCustomer;\r\n     \r\n     \r\n\r\n     /**\r\n     * Add/Update \r\n     * \r\n     * @param _newCustomer new Customer address\r\n     * @param _which Select customer first customer by 0 and second customer by 1\r\n     * @return sucess\r\n     */\r\n    function setCustomer(address payable _newCustomer, bool _which) onlyOwner public returns (bool success) {\r\n        require(_newCustomer != address(0));\r\n        \r\n        if(_which == false) {\r\n            firstCustomer = _newCustomer;\r\n            emit logCustomerSet(msg.sender, firstCustomer, \"first Customer\");\r\n        }\r\n        \r\n        if(_which == true) {\r\n            secondCustomer = _newCustomer;\r\n            emit logCustomerSet(msg.sender, secondCustomer, \"second Customer\");\r\n        }\r\n        \r\n        return true;\r\n    }\r\n     \r\n     /**\r\n     * Assign half of the localbalance to the Customers\r\n     * If the localbalance doesn't split even it is reduced until it splits even\r\n     * Update the localbalance.\r\n     * \r\n     * @return true on success\r\n     */\r\n     function split() onlyOwner onlyIfRunning public payable returns (bool success) {\r\n         uint _ammount = msg.value;\r\n\t\t uint _halfAmmount;\r\n\t\t  \r\n\t\t  //Test if splitters are actually set\r\n          require(firstCustomer != address(0) && secondCustomer != address(0),\"Both customers have to be set.\");\r\n\r\n\t\t  \r\n\t\t  // If there is a remainder then we reduce the ammount by one Wei\r\n\t\t   if(_ammount.mod(2) == 1) {\r\n\t\t\t  revert(\"Ammount not splittable.\");\r\n\t\t  }\r\n\t\t  \r\n\t\t  //Split the ammount by half and check if we still have enough funds.\r\n          _halfAmmount = _ammount.div(2);\r\n          require(_halfAmmount>0, \"Local balance is too low.\");\r\n\t\t  \r\n\t\t\r\n        \r\n          //transfer\r\n         balances[firstCustomer] = balances[firstCustomer].add(_halfAmmount);\r\n         balances[secondCustomer] = balances[secondCustomer].add(_halfAmmount);\r\n         emit logFundsSplit(msg.sender, _halfAmmount, firstCustomer, secondCustomer);\r\n          \r\n          return true;\r\n     }\r\n     \r\n    \r\n     /**\r\n      * Currently set customers can Withdraw their funds there\r\n      *\r\n      * @return true on success \r\n      */\r\n     function withdrawFunds() onlyIfRunning public returns (bool success){\r\n         uint _ammount;\r\n         require(balances[msg.sender]>0);\r\n         \r\n        _ammount = balances[msg.sender];\r\n        balances[msg.sender] = 0;\r\n        \r\n        msg.sender.transfer(_ammount);\r\n        emit logFundsWithdrawn(msg.sender,_ammount);\r\n\r\n        return true;\r\n     }\r\n     \r\n   \r\n     \r\n }",
  "sourcePath": "/home/vagrant/DAPPS/nhck_splitter/contracts/Splitter.sol",
  "compiler": {
    "name": "solc",
    "version": "0.5.8+commit.23d335f2.Emscripten.clang"
  },
  "schemaVersion": "3.0.10",
  "updatedAt": "2019-08-08T15:28:19.215Z",
  "devdoc": {
    "methods": {
      "setCustomer(address,bool)": {
        "params": {
          "_newCustomer": "new Customer address\r",
          "_which": "Select customer first customer by 0 and second customer by 1\r"
        },
        "return": "sucess\r"
      },
      "split()": {
        "return": "true on success\r"
      },
      "withdrawFunds()": {
        "return": "true on success \r"
      }
    },
    "title": "Splitting of Alice' ethereum for the Blockstars course. \r"
  },
  "userdoc": {
    "methods": {
      "setCustomer(address,bool)": {
        "notice": "Add/Update \r \r"
      },
      "split()": {
        "notice": "Assign half of the localbalance to the Customers\r If the localbalance doesn't split even it is reduced until it splits even\r Update the localbalance.\r \r"
      },
      "withdrawFunds()": {
        "notice": "Currently set customers can Withdraw their funds there\r "
      }
    }
  }
}