{
  "contractName": "Splitter",
  "abi": [
    {
      "constant": true,
      "inputs": [],
      "name": "owner",
      "outputs": [
        {
          "name": "",
          "type": "address"
        }
      ],
      "payable": false,
      "stateMutability": "view",
      "type": "function"
    },
    {
      "constant": false,
      "inputs": [
        {
          "name": "newOnwer",
          "type": "address"
        }
      ],
      "name": "changeOwner",
      "outputs": [
        {
          "name": "success",
          "type": "bool"
        }
      ],
      "payable": false,
      "stateMutability": "nonpayable",
      "type": "function"
    },
    {
      "inputs": [],
      "payable": true,
      "stateMutability": "payable",
      "type": "constructor"
    },
    {
      "payable": true,
      "stateMutability": "payable",
      "type": "fallback"
    },
    {
      "anonymous": false,
      "inputs": [
        {
          "indexed": false,
          "name": "sender",
          "type": "address"
        },
        {
          "indexed": false,
          "name": "newOnwer",
          "type": "address"
        }
      ],
      "name": "LogChangeOwner",
      "type": "event"
    },
    {
      "constant": true,
      "inputs": [],
      "name": "getBalance",
      "outputs": [
        {
          "name": "",
          "type": "uint256"
        }
      ],
      "payable": false,
      "stateMutability": "view",
      "type": "function"
    },
    {
      "constant": false,
      "inputs": [
        {
          "name": "_splitter1",
          "type": "address"
        },
        {
          "name": "_splitter2",
          "type": "address"
        }
      ],
      "name": "splitterSetTargets",
      "outputs": [
        {
          "name": "success",
          "type": "bool"
        }
      ],
      "payable": false,
      "stateMutability": "nonpayable",
      "type": "function"
    },
    {
      "constant": true,
      "inputs": [],
      "name": "splitterGetTargets",
      "outputs": [
        {
          "name": "",
          "type": "address"
        },
        {
          "name": "",
          "type": "address"
        }
      ],
      "payable": false,
      "stateMutability": "view",
      "type": "function"
    },
    {
      "constant": false,
      "inputs": [],
      "name": "splitit",
      "outputs": [
        {
          "name": "success",
          "type": "bool"
        }
      ],
      "payable": false,
      "stateMutability": "nonpayable",
      "type": "function"
    },
    {
      "constant": true,
      "inputs": [],
      "name": "splittergetBalance",
      "outputs": [
        {
          "name": "_splitter1bal",
          "type": "uint256"
        },
        {
          "name": "_splitter2bal",
          "type": "uint256"
        }
      ],
      "payable": false,
      "stateMutability": "view",
      "type": "function"
    },
    {
      "constant": false,
      "inputs": [],
      "name": "splitterReturnToOwner",
      "outputs": [
        {
          "name": "success",
          "type": "bool"
        }
      ],
      "payable": false,
      "stateMutability": "nonpayable",
      "type": "function"
    }
  ],
  "bytecode": "0x6080604052336000806101000a81548173ffffffffffffffffffffffffffffffffffffffff021916908373ffffffffffffffffffffffffffffffffffffffff16021790555033600160006101000a81548173ffffffffffffffffffffffffffffffffffffffff021916908373ffffffffffffffffffffffffffffffffffffffff160217905550610ff9806100946000396000f3fe60806040526004361061007b5760003560e01c80638da5cb5b1161004e5780638da5cb5b14610190578063a6f9dae1146101e7578063c113962214610250578063f012a23c146102d95761007b565b806312065fe01461007d5780635bae5e11146100a85780637b414299146100d7578063840fe84914610161575b005b34801561008957600080fd5b5061009261030b565b6040518082815260200191505060405180910390f35b3480156100b457600080fd5b506100bd61032a565b604051808215151515815260200191505060405180910390f35b3480156100e357600080fd5b506100ec6104a7565b604051808373ffffffffffffffffffffffffffffffffffffffff1673ffffffffffffffffffffffffffffffffffffffff1681526020018273ffffffffffffffffffffffffffffffffffffffff1673ffffffffffffffffffffffffffffffffffffffff1681526020019250505060405180910390f35b34801561016d57600080fd5b506101766104fe565b604051808215151515815260200191505060405180910390f35b34801561019c57600080fd5b506101a5610805565b604051808273ffffffffffffffffffffffffffffffffffffffff1673ffffffffffffffffffffffffffffffffffffffff16815260200191505060405180910390f35b3480156101f357600080fd5b506102366004803603602081101561020a57600080fd5b81019080803573ffffffffffffffffffffffffffffffffffffffff16906020019092919050505061082a565b604051808215151515815260200191505060405180910390f35b34801561025c57600080fd5b506102bf6004803603604081101561027357600080fd5b81019080803573ffffffffffffffffffffffffffffffffffffffff169060200190929190803573ffffffffffffffffffffffffffffffffffffffff1690602001909291905050506109b1565b604051808215151515815260200191505060405180910390f35b3480156102e557600080fd5b506102ee610db7565b604051808381526020018281526020019250505060405180910390f35b60003073ffffffffffffffffffffffffffffffffffffffff1631905090565b60008060009054906101000a900473ffffffffffffffffffffffffffffffffffffffff1673ffffffffffffffffffffffffffffffffffffffff163373ffffffffffffffffffffffffffffffffffffffff16146103d1576040517f08c379a0000000000000000000000000000000000000000000000000000000008152600401808060200182810382526027815260200180610fa76027913960400191505060405180910390fd5b60006103db61030b565b905060008111610436576040517f08c379a0000000000000000000000000000000000000000000000000000000008152600401808060200182810382526027815260200180610eee6027913960400191505060405180910390fd5b600160009054906101000a900473ffffffffffffffffffffffffffffffffffffffff1673ffffffffffffffffffffffffffffffffffffffff166108fc829081150290604051600060405180830381858888f1935050505015801561049e573d6000803e3d6000fd5b50600191505090565b600080600260009054906101000a900473ffffffffffffffffffffffffffffffffffffffff16600360009054906101000a900473ffffffffffffffffffffffffffffffffffffffff16819150809050915091509091565b60008060009054906101000a900473ffffffffffffffffffffffffffffffffffffffff1673ffffffffffffffffffffffffffffffffffffffff163373ffffffffffffffffffffffffffffffffffffffff16146105a5576040517f08c379a0000000000000000000000000000000000000000000000000000000008152600401808060200182810382526027815260200180610fa76027913960400191505060405180910390fd5b600073ffffffffffffffffffffffffffffffffffffffff16600260009054906101000a900473ffffffffffffffffffffffffffffffffffffffff1673ffffffffffffffffffffffffffffffffffffffff16141580156106535750600073ffffffffffffffffffffffffffffffffffffffff16600360009054906101000a900473ffffffffffffffffffffffffffffffffffffffff1673ffffffffffffffffffffffffffffffffffffffff1614155b61065c57600080fd5b600061066661030b565b905060006002828161067457fe5b049050600081116106d0576040517f08c379a0000000000000000000000000000000000000000000000000000000008152600401808060200182810382526023815260200180610f156023913960400191505060405180910390fd5b818182011461072a576040517f08c379a000000000000000000000000000000000000000000000000000000000815260040180806020018281038252602a815260200180610f7d602a913960400191505060405180910390fd5b600260009054906101000a900473ffffffffffffffffffffffffffffffffffffffff1673ffffffffffffffffffffffffffffffffffffffff166108fc829081150290604051600060405180830381858888f19350505050158015610792573d6000803e3d6000fd5b50600360009054906101000a900473ffffffffffffffffffffffffffffffffffffffff1673ffffffffffffffffffffffffffffffffffffffff166108fc829081150290604051600060405180830381858888f193505050501580156107fb573d6000803e3d6000fd5b5060019250505090565b6000809054906101000a900473ffffffffffffffffffffffffffffffffffffffff1681565b60008060009054906101000a900473ffffffffffffffffffffffffffffffffffffffff1673ffffffffffffffffffffffffffffffffffffffff163373ffffffffffffffffffffffffffffffffffffffff16146108d1576040517f08c379a0000000000000000000000000000000000000000000000000000000008152600401808060200182810382526027815260200180610fa76027913960400191505060405180910390fd5b816000806101000a81548173ffffffffffffffffffffffffffffffffffffffff021916908373ffffffffffffffffffffffffffffffffffffffff1602179055507f96b36bedce75759b139551b10b3d2e1e863dbbfbdc30f9f9e374bb24431d5da23383604051808373ffffffffffffffffffffffffffffffffffffffff1673ffffffffffffffffffffffffffffffffffffffff1681526020018273ffffffffffffffffffffffffffffffffffffffff1673ffffffffffffffffffffffffffffffffffffffff1681526020019250505060405180910390a160019050919050565b60008060009054906101000a900473ffffffffffffffffffffffffffffffffffffffff1673ffffffffffffffffffffffffffffffffffffffff163373ffffffffffffffffffffffffffffffffffffffff1614610a58576040517f08c379a0000000000000000000000000000000000000000000000000000000008152600401808060200182810382526027815260200180610fa76027913960400191505060405180910390fd5b600260009054906101000a900473ffffffffffffffffffffffffffffffffffffffff1673ffffffffffffffffffffffffffffffffffffffff168373ffffffffffffffffffffffffffffffffffffffff16148015610b025750600360009054906101000a900473ffffffffffffffffffffffffffffffffffffffff1673ffffffffffffffffffffffffffffffffffffffff168273ffffffffffffffffffffffffffffffffffffffff16145b80610bb35750600360009054906101000a900473ffffffffffffffffffffffffffffffffffffffff1673ffffffffffffffffffffffffffffffffffffffff168373ffffffffffffffffffffffffffffffffffffffff16148015610bb25750600260009054906101000a900473ffffffffffffffffffffffffffffffffffffffff1673ffffffffffffffffffffffffffffffffffffffff168273ffffffffffffffffffffffffffffffffffffffff16145b5b15610c09576040517f08c379a0000000000000000000000000000000000000000000000000000000008152600401808060200182810382526045815260200180610f386045913960600191505060405180910390fd5b600260009054906101000a900473ffffffffffffffffffffffffffffffffffffffff1673ffffffffffffffffffffffffffffffffffffffff168373ffffffffffffffffffffffffffffffffffffffff1614158015610c945750600073ffffffffffffffffffffffffffffffffffffffff168373ffffffffffffffffffffffffffffffffffffffff1614155b15610cdb5782600260006101000a81548173ffffffffffffffffffffffffffffffffffffffff021916908373ffffffffffffffffffffffffffffffffffffffff1602179055505b600360009054906101000a900473ffffffffffffffffffffffffffffffffffffffff1673ffffffffffffffffffffffffffffffffffffffff168273ffffffffffffffffffffffffffffffffffffffff1614158015610d665750600073ffffffffffffffffffffffffffffffffffffffff168273ffffffffffffffffffffffffffffffffffffffff1614155b15610dad5781600360006101000a81548173ffffffffffffffffffffffffffffffffffffffff021916908373ffffffffffffffffffffffffffffffffffffffff1602179055505b6001905092915050565b600080600073ffffffffffffffffffffffffffffffffffffffff16600260009054906101000a900473ffffffffffffffffffffffffffffffffffffffff1673ffffffffffffffffffffffffffffffffffffffff1614158015610e685750600073ffffffffffffffffffffffffffffffffffffffff16600360009054906101000a900473ffffffffffffffffffffffffffffffffffffffff1673ffffffffffffffffffffffffffffffffffffffff1614155b610e7157600080fd5b600260009054906101000a900473ffffffffffffffffffffffffffffffffffffffff1673ffffffffffffffffffffffffffffffffffffffff1631600360009054906101000a900473ffffffffffffffffffffffffffffffffffffffff1673ffffffffffffffffffffffffffffffffffffffff163191509150909156fe436f6e747261637420646f6573206e6f7420686176652066756e647320746f2072657475726e2e436f6e747261637420646f6573206e6f74206861766520656e6f7567682066756e647350726f76696465642073706c697474657220636c69656e742061646472657373657320617265207468652073616d65206173206265666f726520286f7220656d707479292e4e6f7420656e6f7567682066756e647320746f2073706c697420657175616c6c7920666f722074776f2e596f7520617265206e6f7420746865206f776e6572206f66207468697320636f6e74726163742ea165627a7a72305820738bbaf4384cc6d9c2ac9b60790d5be8144e0f754d19be5c15dd56420f97a2c80029",
  "source": " pragma solidity 0.5.8;\r\n \r\n import './owned.sol';\r\n \r\n /** @title Splitting of Alice' ethereum for the Blockstars course. */\r\n contract Splitter is Owned {\r\n     \r\n    // We assume that only the owner can send in ether and only the owner can split them\r\n    address payable owner;  //Alices address\r\n\r\n    address payable splitter1; //Bobs address\r\n    address payable splitter2; //Carols address\r\n    \r\n    /**\r\n     * In the constructor we set the owner of the contract to be the initial deployer\r\n     * This could be Alice.\r\n     * \r\n     */\r\n    constructor() public payable {\r\n        owner = msg.sender;\r\n    }\r\n    \r\n    /**\r\n     * This gets the balance of the contract.\r\n     * This is also at the same time the wallet of the contract owner.\r\n     * \r\n     * @return balance Contract balance as uint\r\n     */\r\n    function getBalance() public view returns (uint) {\r\n         return address(this).balance;\r\n    }\r\n    \r\n    /**\r\n     * Sets addresses of Splitter customers\r\n     * \r\n     * QUESTION: Should I check if the parameters are empty here?\r\n     * QUESTION: Does it actually save transaction space to check if the new spltters are the same as before?\r\n     * \r\n     * @param _splitter1 First user that will recieve half of the split\r\n     * @param _splitter2 Second user that will recieve half of the split\r\n     * \r\n     * @return success function was executed sucessfully\r\n     */\r\n     function splitterSetTargets(address payable _splitter1, address payable _splitter2) public onlyOwner returns (bool success) {\r\n        \r\n\r\n        //avoid just flipping of variables or both being emtpy\r\n        require( !((_splitter1 == splitter1 && _splitter2 == splitter2) || (_splitter1 == splitter2 && _splitter2 == splitter1)), \"Provided splitter client addresses are the same as before (or empty).\" );\r\n \r\n        //only set if _splitter1 is not the same as before and not emtpy\r\n        if(_splitter1 != splitter1 && _splitter1 != address(0)) {\r\n             splitter1 = _splitter1;\r\n         }\r\n        if(_splitter2 != splitter2 && _splitter2 != address(0)) {\r\n             splitter2 = _splitter2;\r\n        }\r\n        \r\n         return true;\r\n     }\r\n     \r\n     /**\r\n      * Provides currently set splitter customers\r\n      * \r\n      * @return splitter1 address of splitter 1\r\n      * @return splitter2 address of splitter 2\r\n      */\r\n     function splitterGetTargets() public view returns(address, address) {\r\n         return (splitter1,splitter2);\r\n     }\r\n     \r\n     /**\r\n      * Sends half of a selected ammount of the contracts ether to the two splitters (splitter1 and splitter2)\r\n      * \r\n      * QUESTION: How small can the ammount be - could there be a rounding problem?\r\n      * \r\n      * @return success function was executed sucessfully\r\n      */\r\n      function splitit() public onlyOwner returns (bool success) {\r\n          \r\n           //Test if splitters are actually set\r\n          require(splitter1 != address(0) && splitter2 != address(0));\r\n          \r\n          \r\n          uint _ammount = getBalance();\r\n          uint _hmount = _ammount/2;\r\n          require(_hmount>0, \"Contract does not have enough funds\");\r\n          require(_hmount+_hmount == _ammount,\"Not enough funds to split equally for two.\");\r\n          \r\n         \r\n          //transfer\r\n          splitter1.transfer(_hmount);\r\n          splitter2.transfer(_hmount);\r\n           \r\n          return true;\r\n      }\r\n\r\n      \r\n      /**\r\n       * getBalance of splitter1/_splitter2\r\n       * \r\n       * @return _splitter1bal balance of splitter 1\r\n       * @return _splitter2bal balance of splitter 2\r\n       */\r\n       function splittergetBalance() public view returns (uint _splitter1bal, uint _splitter2bal) {\r\n          \r\n          //Test if splitters are actually set\r\n          require(splitter1 != address(0) && splitter2 != address(0));\r\n          \r\n          return(splitter1.balance, splitter2.balance);\r\n       }\r\n       \r\n       /*\r\n        * Alice says: \"Hey - I want my money back.\"\r\n        * Returns contract funds to owner.\r\n        *\r\n        * @return success function was executed sucessfully\r\n        */\r\n       function splitterReturnToOwner() public onlyOwner returns (bool success) {\r\n           \r\n           uint _ammount = getBalance();\r\n           require(_ammount>0,\"Contract does not have funds to return.\");\r\n           \r\n           owner.transfer(_ammount);\r\n           \r\n           return true;\r\n       }\r\n    \r\n    function() payable external {}\r\n }",
  "sourcePath": "/home/vagrant/DAPPS/nhck_splitter/contracts/nhck_splitter.sol",
  "compiler": {
    "name": "solc",
    "version": "0.5.8+commit.23d335f2.Emscripten.clang"
  },
  "schemaVersion": "3.0.10",
  "updatedAt": "2019-07-29T21:19:35.584Z",
  "devdoc": {
    "methods": {
      "getBalance()": {
        "return": "balance Contract balance as uint\r"
      },
      "splitit()": {
        "return": "success function was executed sucessfully\r"
      },
      "splitterGetTargets()": {
        "return": "splitter1 address of splitter 1\rsplitter2 address of splitter 2\r"
      },
      "splitterSetTargets(address,address)": {
        "params": {
          "_splitter1": "First user that will recieve half of the split\r",
          "_splitter2": "Second user that will recieve half of the split\r \r"
        },
        "return": "success function was executed sucessfully\r"
      },
      "splittergetBalance()": {
        "return": "_splitter1bal balance of splitter 1\r_splitter2bal balance of splitter 2\r"
      }
    },
    "title": "Splitting of Alice' ethereum for the Blockstars course. "
  },
  "userdoc": {
    "methods": {
      "constructor": "In the constructor we set the owner of the contract to be the initial deployer\r This could be Alice.\r \r",
      "getBalance()": {
        "notice": "This gets the balance of the contract.\r This is also at the same time the wallet of the contract owner.\r \r"
      },
      "splitit()": {
        "notice": "Sends half of a selected ammount of the contracts ether to the two splitters (splitter1 and splitter2)\r \r QUESTION: How small can the ammount be - could there be a rounding problem?\r \r"
      },
      "splitterGetTargets()": {
        "notice": "Provides currently set splitter customers\r \r"
      },
      "splitterSetTargets(address,address)": {
        "notice": "Sets addresses of Splitter customers\r \r QUESTION: Should I check if the parameters are empty here?\r QUESTION: Does it actually save transaction space to check if the new spltters are the same as before?\r \r"
      },
      "splittergetBalance()": {
        "notice": "getBalance of splitter1/_splitter2\r \r"
      }
    }
  }
}