{
  "contractName": "Stoppable",
  "abi": [
    {
      "constant": true,
      "inputs": [],
      "name": "getOwner",
      "outputs": [
        {
          "name": "owner",
          "type": "address"
        }
      ],
      "payable": false,
      "stateMutability": "view",
      "type": "function"
    },
    {
      "constant": false,
      "inputs": [
        {
          "name": "newOwner",
          "type": "address"
        }
      ],
      "name": "changeOwner",
      "outputs": [
        {
          "name": "success",
          "type": "bool"
        }
      ],
      "payable": false,
      "stateMutability": "nonpayable",
      "type": "function"
    },
    {
      "inputs": [
        {
          "name": "startRunning",
          "type": "bool"
        }
      ],
      "payable": false,
      "stateMutability": "nonpayable",
      "type": "constructor"
    },
    {
      "anonymous": false,
      "inputs": [
        {
          "indexed": true,
          "name": "sender",
          "type": "address"
        }
      ],
      "name": "LogPausedcontract",
      "type": "event"
    },
    {
      "anonymous": false,
      "inputs": [
        {
          "indexed": true,
          "name": "sender",
          "type": "address"
        }
      ],
      "name": "LogResumedcontract",
      "type": "event"
    },
    {
      "anonymous": false,
      "inputs": [
        {
          "indexed": true,
          "name": "sender",
          "type": "address"
        },
        {
          "indexed": true,
          "name": "newOnwer",
          "type": "address"
        }
      ],
      "name": "LogChangeOwner",
      "type": "event"
    },
    {
      "constant": false,
      "inputs": [],
      "name": "pauseContract",
      "outputs": [
        {
          "name": "success",
          "type": "bool"
        }
      ],
      "payable": false,
      "stateMutability": "nonpayable",
      "type": "function"
    },
    {
      "constant": false,
      "inputs": [],
      "name": "resumeContract",
      "outputs": [
        {
          "name": "success",
          "type": "bool"
        }
      ],
      "payable": false,
      "stateMutability": "nonpayable",
      "type": "function"
    }
  ],
  "bytecode": "0x608060405234801561001057600080fd5b506040516020806106998339810180604052602081101561003057600080fd5b8101908080519060200190929190505050336000806101000a81548173ffffffffffffffffffffffffffffffffffffffff021916908373ffffffffffffffffffffffffffffffffffffffff16021790555080600060146101000a81548160ff021916908315150217905550506105ee806100ab6000396000f3fe608060405234801561001057600080fd5b506004361061004c5760003560e01c8063439766ce14610051578063893d20e814610073578063a6f9dae1146100bd578063c4bc5da514610119575b600080fd5b61005961013b565b604051808215151515815260200191505060405180910390f35b61007b61025f565b604051808273ffffffffffffffffffffffffffffffffffffffff1673ffffffffffffffffffffffffffffffffffffffff16815260200191505060405180910390f35b6100ff600480360360208110156100d357600080fd5b81019080803573ffffffffffffffffffffffffffffffffffffffff169060200190929190505050610288565b604051808215151515815260200191505060405180910390f35b610121610475565b604051808215151515815260200191505060405180910390f35b60008060009054906101000a900473ffffffffffffffffffffffffffffffffffffffff1673ffffffffffffffffffffffffffffffffffffffff163373ffffffffffffffffffffffffffffffffffffffff16146101e2576040517f08c379a000000000000000000000000000000000000000000000000000000000815260040180806020018281038252602781526020018061059c6027913960400191505060405180910390fd5b600060149054906101000a900460ff166101fb57600080fd5b60008060146101000a81548160ff0219169083151502179055503373ffffffffffffffffffffffffffffffffffffffff167fab1ce5620eaf07eb6b9fd8312f0f1f03c9b1e6beaf4cd36a28c261ecd950286e60405160405180910390a26001905090565b60008060009054906101000a900473ffffffffffffffffffffffffffffffffffffffff16905090565b60008060009054906101000a900473ffffffffffffffffffffffffffffffffffffffff1673ffffffffffffffffffffffffffffffffffffffff163373ffffffffffffffffffffffffffffffffffffffff161461032f576040517f08c379a000000000000000000000000000000000000000000000000000000000815260040180806020018281038252602781526020018061059c6027913960400191505060405180910390fd5b600073ffffffffffffffffffffffffffffffffffffffff168273ffffffffffffffffffffffffffffffffffffffff1614156103d2576040517f08c379a000000000000000000000000000000000000000000000000000000000815260040180806020018281038252601d8152602001807f496e76616c6964206164647265737320666f72206e6577204f6e77657200000081525060200191505060405180910390fd5b816000806101000a81548173ffffffffffffffffffffffffffffffffffffffff021916908373ffffffffffffffffffffffffffffffffffffffff1602179055508173ffffffffffffffffffffffffffffffffffffffff163373ffffffffffffffffffffffffffffffffffffffff167f96b36bedce75759b139551b10b3d2e1e863dbbfbdc30f9f9e374bb24431d5da260405160405180910390a360019050919050565b60008060009054906101000a900473ffffffffffffffffffffffffffffffffffffffff1673ffffffffffffffffffffffffffffffffffffffff163373ffffffffffffffffffffffffffffffffffffffff161461051c576040517f08c379a000000000000000000000000000000000000000000000000000000000815260040180806020018281038252602781526020018061059c6027913960400191505060405180910390fd5b600060149054906101000a900460ff161561053657600080fd5b6001600060146101000a81548160ff0219169083151502179055503373ffffffffffffffffffffffffffffffffffffffff167f63eafc32e83056034d64eb224719b88c44acb7447f36d2d9adbdd3213a5ff0a660405160405180910390a2600190509056fe596f7520617265206e6f7420746865206f776e6572206f66207468697320636f6e74726163742ea165627a7a72305820ddbd130f77ccdb8454315f48e89809e068d9a211e7e01ce38e1d770f923034d80029",
  "source": "pragma solidity 0.5.8;\r\n\r\nimport './Owned.sol';\r\n\r\ncontract Stoppable is Owned {\r\n    bool private isRunning;\r\n    event LogPausedcontract(address indexed sender);\r\n    event LogResumedcontract(address indexed sender);\r\n   \r\n     modifier onlyIfRunning {\r\n        require(isRunning);\r\n        _;\r\n    }\r\n    \r\n     modifier onlyIfPaused {\r\n        require(!isRunning);\r\n        _;\r\n    }\r\n    \r\n    /**\r\n     * \r\n     * @param startRunning true to start the contract in running mode, false to start stopped\r\n     */\r\n    constructor(bool startRunning) public {\r\n        isRunning = startRunning; \r\n    }\r\n    \r\n    function pauseContract() public onlyOwner onlyIfRunning returns(bool success) {\r\n        isRunning = false;\r\n        emit LogPausedcontract(msg.sender);\r\n        return true;\r\n    }\r\n    \r\n    function resumeContract() public onlyOwner returns(bool success) {\r\n       require(!isRunning);\r\n        isRunning = true;\r\n        emit LogResumedcontract(msg.sender);\r\n        return true;\r\n    }\r\n}",
  "sourcePath": "/home/vagrant/DAPPS/nhck_splitter/contracts/Stoppable.sol",
  "compiler": {
    "name": "solc",
    "version": "0.5.8+commit.23d335f2.Emscripten.clang"
  },
  "schemaVersion": "3.0.10",
  "updatedAt": "2019-08-08T09:05:56.746Z",
  "devdoc": {
    "methods": {
      "constructor": {
        "params": {
          "startRunning": "true to start the contract in running mode, false to start stopped\r"
        }
      }
    }
  },
  "userdoc": {
    "methods": {
      "constructor": "\r"
    }
  }
}